:020000040800F2
:10500000B08A0020E9530008A175000899750008CE
:105010009D75000815730008CD9C00080000000075
:1050200000000000000000000000000029530008FC
:10503000457400080000000085530008B57500089D
:1050400003540008035400080354000803540008E4
:105050000354000803540008477400080354000870
:1050600003540008035400080354000803540008C4
:1050700003540008035400080354000803540008B4
:1050800003540008035400080354000803540008A4
:105090000354000803540008035400080354000894
:1050A0000354000803540008035400080354000884
:1050B0000354000803540008035400080354000874
:1050C0000354000803540008035400080354000864
:1050D0000354000803540008299C000803540008E6
:1050E0000354000803540008035400080354000844
:1050F0000354000803540008035400080354000834
:10510000035400080354000879760008035400088B
:105110000354000803540008035400080354000813
:1051200071730008F1730008035400080354000869
:1051300003540008035400080354000803540008F3
:10514000035400080354000803540008A575000820
:105150000354000803540008000000000354000832
:105160000354000803540008000000000000000081
:105170000354000803540008035400080000000012
:105180000000000003540008035400080354000802
:1051900003540008000000000000000000000000B0
:1051A00000000000000000000000000003540008A0
:1051B0000354000800000000035400080000000031
:1051C00000000000000000000000000000000000DF
:1051D0000000000000000000035400080354000811
:1051E0000354000803540008035400080354000843
:1051F0000354000803540008035400080354000833
:1052000003540008035400080354000800F002F897
:1052100000F07AF80AA090E8000C82448344AAF1D6
:105220000107DA4501D100F06FF8AFF2090EBAE8D4
:105230000F0013F0010F18BFFB1A43F001031847CA
:10524000A0E30000C0E300000A444FF0000C10F897
:10525000013B13F0070408BF10F8014B1D1108BFF4
:1052600010F8015B641E05D010F8016B641E01F894
:10527000016BF9D113F0080F1EBF10F8014BAD1CE4
:105280000C1B09D16D1E58BF01F801CBFAD505E002
:1052900014F8016B01F8016B6D1EF9D59142D6D35C
:1052A000704700000023002400250026103A28BF84
:1052B00078C1FBD8520728BF30C148BF0B60704788
:1052C000642900F0F981752900F0F681782900F051
:1052D0002F82632900F0A184732900F0A6840020A6
:1052E00070471FB50DF0B4FF9DE8030000F0DEFB32
:1052F00000F0BCFB0400002000210DF093FF401CD7
:1053000060601FBD10B510BD00F0C8FD1146FFF76D
:10531000E8FF06F0C5FA00F0F4FD03B4FFF7F2FF72
:1053200003BC04F0DCFC00002C4B19680868B0E8F2
:10533000F04F80F30988BFF36F8F4FF0000080F3C8
:10534000118870470000000008480068006880F37A
:1053500008884FF0000080F3148862B661B6BFF38E
:105360004F8FBFF36F8F00DF00BF00BF08ED00E07D
:10537000DFF80C00016841F470010160704700BF64
:1053800088ED00E0EFF30980BFF36F8F134B1A68CD
:105390001EF0100F08BF20ED108A20E9F04F1060BA
:1053A00009B44FF0100080F31188BFF34F8FBFF3A3
:1053B0006F8F0CF021F94FF0000080F3118809BCC9
:1053C00019680868B0E8F04F1EF0100F08BFB0EC85
:1053D000108A80F30988BFF36F8F7047C4020020E2
:1053E000EFF30580704700000948804709480047EF
:1053F000FEE7FEE7FEE7FEE7FEE7FEE7FEE7FEE785
:10540000FEE7FEE704480549054A064B70470000E1
:10541000E97500080D520008B07C0020B08A002019
:10542000B0820020B08200207047000010B500F06C
:105430001DFB001D10BD00BFEDDD000070B5064670
:1054400000F010FB056806F10B0020F00704B442E1
:105450009CBF002070BD2B466A68BAB11068A0429C
:1054600010D304F1080188423CBF5068586007D34C
:105470005168101941601168091B0160586014607F
:10548000101D70BD13465268002AE7D121462846F8
:1054900000F0F8FA0028DED170BD70B50446051F93
:1054A00000F0E0FA0068002C14BF446870BD002CC6
:1054B00018BFAC423CBF20466468F8D301680A18A4
:1054C000AA4218BF456003D12A680546114401600D
:1054D00028684119A1421CBF6C6070BD6168696099
:1054E00021680844286070BD53EA020C00F069800E
:1054F0002DE9F04B4FF00006002B1FBFB3FA83F5E8
:1055000003FA05F424FA05F65E4012BF1643B2FA18
:1055100082F502FA05F4C5F120051EBF22FA05FC4A
:1055200044EA0C04203556EA044C4FEA144418BFF0
:10553000641C4FF000084FF00009904271EB030C1F
:1055400039D3002919BFB1FA81F701FA07F6B0FA89
:1055500080F700FA07F6C7F120071EBF20FA07FC04
:1055600046EA0C062037B6FBF4FCA7EB0507103F14
:1055700007F01F0BCBF120060CFA0BFB2CFA06F6FA
:1055800044BFB3460026202FA4BF5E464FF0000B59
:105590005BEA060C08BF4FF0010B19EB0B09ABFBE4
:1055A000027C48EB0608C01B06FB02CC0BFB03CCBD
:1055B00071EB0C01C1E70B46024641464846BDE887
:1055C000F08B13B54FF000004FF00001AFF30080F7
:1055D000BDE81C40704700000FB4044910B503AA91
:1055E000029800F027FB10BC5DF814FBB402002009
:1055F0000FB41CB5074B06AA7B446946009005987A
:1056000000F0E9FA0020694600F0F8FA1CBC5DF8E9
:1056100014FB00000106000070B5044685690068AF
:10562000C10601D5302600E02026C00707D070BD96
:10563000D4E9012130469047206A401C20626D1E4B
:10564000F6D570BD70B5044685690078C00707D1EE
:1056500070BDD4E9012120209047206A401C2062BF
:105660006D1EF6D570BD70B50C460546012A05D0F5
:105670002878800600D5EA69002302E0012305E0CE
:105680005B1C934202D2E05C0028F9D1A869E618BD
:10569000C01AA861286A184428622846FFF7BCFF90
:1056A00004E0D5E9012114F8010B9047B442F8D386
:1056B0002846FFF7C7FF70BD2DE9F04106460024DC
:1056C00010687529314616A510D0AFF30080002868
:1056D00002DA404213A507E031688A0701D512A516
:1056E00002E0490704D511A5012401E0AFF30080D1
:1056F00000210A2206F1240709E0B0FBF2FCB0FB0E
:10570000F2F302FB1C00303078541846491C002884
:10571000F3D123462A463046BDE8F04100F0FCB9FB
:10572000000000002D0000002B0000002000000001
:1057300070B504460D4621461068AFF300802188FD
:10574000090502D50F4A7A4402E00E4A7A440E3225
:10575000002104F1240305E000F00F060009965D26
:105760005E54491C0028F7D120780023000704D597
:10577000702D02D009B1022311322046BDE87040DD
:1057800000F0CAB94CDB00002DE9F05F8946044601
:105790004FF0000ADFF824B1FB44C0F820A02046F7
:1057A000E168884700287DD0252806D0D4E901216A
:1057B0009047206A401C2062F1E700255F462046A2
:1057C000E16888472028064607DB312E05D2B81944
:1057D00010F8200C08B10543F1E7A80701D525F022
:1057E0000405C4F81CA00027C4F818A02A2E09D06C
:1057F000304604F06DFA38B304EB8708303EC8F841
:10580000186019E059F8041B204604EB87029161E7
:10581000E1688847012F064618D1E069002820DAA0
:1058200025F020051DE0D8F8180000EB800006EBFD
:1058300040003038C8F818002046E168884706461E
:1058400004F046FA0028EED1012F0AD02E2E08D1FE
:105850002046E16888477F1C0646022F45F0200558
:10586000C4DBA069002803DA404245F00105A061CD
:10587000E80701D025F01005A6B1A6F141001928CE
:1058800002D8203645F400654A4631462046256058
:105890004D46FFF715FD60B1012807D0ED1D25F03D
:1058A000070000E007E000F1080978E705F10409C6
:1058B00075E730467AE7206ABDE8F09F22DB0000FA
:1058C00070B5064600F0D6F80468054630460A2250
:1058D000002100F0C1F92C6070BD10B5431C02E03E
:1058E00010F8011B71B18107FAD14FF0013202C8E3
:1058F0008C1A8C4314EAC211F9D0C01A0A0603D0DC
:10590000C01E10BDC01A10BD0A0401D0801E10BDFB
:105910000902FCD0401E10BD032A40F2308010F076
:10592000030C00F0158011F8013BBCF1020F62443A
:1059300098BF11F801CB00F8013B38BF11F8013BCB
:10594000A2F1040298BF00F801CB38BF00F8013B78
:1059500011F0030300F0B881083AC0F0088051F854
:10596000043B083A51F804CBA0E80810F5E7121DF3
:105970005CBF51F8043B40F8043BAFF30080D20712
:1059800024BF11F8013B11F801CB48BF11F8012BDE
:1059900024BF00F8013B00F801CB48BF00F8012B01
:1059A000704701F0FF03114601B543EA032242EAC2
:1059B000024200F00BF801BD02F0FF0343EA0322AC
:1059C00042EA024200F002B84FF000020429C0F09F
:1059D000128010F0030C00F01B80CCF1040CBCF121
:1059E000020F18BF00F8012BA8BF20F8022BA1EB73
:1059F0000C0100F00DB85FEAC17C24BF00F8012B58
:105A000000F8012B48BF00F8012B70474FF000024F
:105A100000B5134694469646203922BFA0E80C50A4
:105A2000A0E80C50B1F12001BFF4F7AF090728BF7F
:105A3000A0E80C5048BF0CC05DF804EB890028BFFB
:105A400040F8042B08BF704748BF20F8022B11F024
:105A5000804F18BF00F8012B7047704770477047A0
:105A60007047000000487047547C00200048704791
:105A70006C7C0020004870474C7C002070477047C9
:105A80007047704738B504460A4600206946AFF3B0
:105A90000080002808BF38BD02460099204600F06B
:105AA00049F9012038BD012000F0B1B9F8B5AFF3D4
:105AB0000080054600200C46102000BF0646A819AD
:105AC000A0420DD9324669460020AFF3008007009E
:105AD00008BF00F09CF90098A04218BF0546C41901
:105AE000FFF7C0FF05600746F01D20F007004619CC
:105AF000284600F00AF8B44208BFF8BDA21B3146A0
:105B00003868BDE8F84000F015B900210160C0E92F
:105B100001107047102070472DE9F0470D46994657
:105B20009246044600F124080168880604D5E0691D
:105B300021F01001216000E00120A84201DD471B97
:105B400000E00027A1697A1902EB0900081AA06198
:105B50002078C00602D42046FFF75EFD002608E04C
:105B6000D4E901211AF806009047206A401C761CEF
:105B700020624E45F4DB2078C0060AD52046FFF7A8
:105B80004BFD06E0D4E9012130209047206A401CFB
:105B90002062381EA7F10107F4DC07E0D4E90121F7
:105BA00018F805009047206A401C2062281EA5F1C5
:105BB0000105F3DC2046FFF745FD2078000602D5FD
:105BC0000220BDE8F0870120FBE7000001694A1CC4
:105BD00002610878704700B58FB0CDE9013100212E
:105BE000059105497944CDE9031011466846FFF750
:105BF000CBFD0FB000BD0000E5FFFFFF0A6802F813
:105C0000010B0A60704710B5436913B1AFF3008010
:105C100001E0FFF728FD012010BD127800F12401FA
:105C20000A7000224A700122EDE711684FF0FF323E
:105C3000E9E70000074B70B50D467B44FFF7CBFF4B
:105C40000446284600F0DFF810B14FF0FF3070BD79
:105C5000204670BDAF5600002DE9F04791460F4633
:105C600080460446002614F8015B2DB1FFF7DEFBE9
:105C70000068405DC007F6D12B2D02D02D2D18D025
:105C8000641E4A463946204600F06EF827B139684E
:105C9000A14201D1C7F800804FF0020471050BD575
:105CA0004042002803DDFFF7E5FE0460A007BDE8E1
:105CB000F08746F48066E4E70028F8DAFFF7DAFEBA
:105CC00004606FF00040F2E710B5203AC0F00B809E
:105CD000B1E81850203AA0E81850B1E81850A0E8F0
:105CE0001850BFF4F5AF5FEA027C24BFB1E818504A
:105CF000A0E8185044BF18C918C0BDE810405FEABA
:105D0000827C24BF51F8043B40F8043B08BF704735
:105D1000D20728BF31F8023B48BF11F8012B28BF3A
:105D200020F8023B48BF00F8012B7047004870473D
:105D30004C7C0020034640688C46002818BF8842EF
:105D40003CBF03464068F8D318681844884207D01F
:105D50000CF1030020F00700001D411A521A014601
:105D6000081D0A60FFF799BB2DE9F05F82461546D2
:105D70008B4600270AF10104B9460078302801D08B
:105D80009DB113E014F8010B0127782803D058289F
:105D900001D045B10AE00DB1102D07D1002714F84C
:105DA000010B102502E0082500E00A250026B04678
:105DB0000EE005FB080005FB06F101271FFA80F83D
:105DC00001EB1046B6F5803F00D3B94614F8010B3D
:105DD000294600F088F80028EBDABBF1000F05D067
:105DE0000FB1641E00E05446CBF80040B9F1000F3B
:105DF00006D0FFF73FFE02210160C81EBDE8F09FFC
:105E000048EA0640FAE7007B00F08000704710B5D2
:105E100000F086F8BDE8104000F07CB84FF0013C7F
:105E200050F8042B51F8043B9A4221D1A2EB0C0309
:105E3000934313EACC1317D150F8042B51F8043BC9
:105E40009A4215D1A2EB0C03934313EACC130BD166
:105E500050F8042B51F8043B9A4209D1A2EB0C03F1
:105E6000934313EACC13DBD04FF00000704700BF20
:105E7000D01A01BAB1FA81F101F0180122FA01F049
:105E8000CB40C1F12001DBB2C0B2C01A2CFA01F341
:105E9000D11A914311EAC311E6D170477546FFF755
:105EA00045FFAE4605006946534620F0070085468B
:105EB00018B020B5FFF7A6FABDE820404FF0000665
:105EC0004FF000074FF000084FF0000B21F00701E2
:105ED000AC46ACE8C009ACE8C009ACE8C009ACE825
:105EE000C0098D4670473A2800D2303820F0200291
:105EF000412A01D3A2F13700884201D34FF0FF308D
:105F0000704710B50446AFF300802046BDE810404E
:105F1000FFF703BA002801D003F0E1BE704700008C
:105F200010B5012805D0002103A000F021F80120C0
:105F300010BD09A1F8E7000053494752544D454DA3
:105F40003A204F7574206F662068656170206D651A
:105F50006D6F7279000000003A2048656170206D15
:105F6000656D6F727920636F72727570746564000D
:105F700070B505460C460A2000E06D1C03F0B1FE2A
:105F800035B128780028F8D102E0641C03F0A9FE9E
:105F900014B120780028F8D1BDE870400A2003F041
:105FA000A0BE00002DE9FF4F81B0824617461D4676
:105FB000DDF838B00020009080460026002481469D
:105FC000CE480078012803D0302005B0BDE8F08F1E
:105FD00015B94FF49070F8E73846FFF77EFC00F0F3
:105FE000FF08B8F1190F02DD4FF48070EDE742F2BF
:105FF000FC100090C24900980968884202D94FF409
:106000008870E2E7BF480068BF4908605146BE4853
:106010000068083003F0EEFBBB48029900680A30C4
:1060200003F0E8FB4146B8480068FE3003F0E2FBAD
:10603000BBF1000F05D05946B3480068FC3003F0AF
:10604000D9FBB148006800F5807000F067F942465E
:106050003946AD48006800F5807003F0DDFB297813
:10606000A948006800F5F67003F0D0FB6978A648EF
:10607000006800F2ED1003F0C9FBA978A24800689F
:1060800000F5F77003F0C2FBE9789F48006800F262
:10609000EF1003F0BBFB16219B48006800F2D11003
:1060A00003F0AEFB9948006800F5FE709749086060
:1060B00008460068097801F00301C1F104010844B1
:1060C0009249086002219148006803F093FB8F48D1
:1060D0000068801C8D49086000246AE04FF48061EC
:1060E00004EB84028A4840F822108848006803F0D4
:1060F00087FB86480068001D84490860084604EB59
:1061000084020168824800EB820041607F48006899
:10611000001D7E490860084604EB840201687C4843
:1061200000EB8200816079480068001D77490860B3
:10613000084604EB84020168754800EB8200C160E8
:1061400072480068CE3071490860084604EB84024A
:1061500001686F4800EB820001616C48006800F53F
:1061600080606A49086004EB8402694850F8221094
:106170006848FFF74BFC04EB8403654951F8232082
:1061800004EB840301EB83014868624903F044FB9C
:106190004FF0000907E0022101FB049000F0CEF867
:1061A000064609F10109B9F1020F01D2002EF2D021
:1061B000641C022C01D2002E90D0002E7DD14FF411
:1061C00080615348383801665048006803F018FB76
:1061D0004E480068001D4D490860084601684C485B
:1061E0003838416649480068001D4849086008463B
:1061F000016847483838816644480068001D4349B3
:1062000008600846016842483838C1663F4800685F
:10621000CE303E490860084601683D48383801677D
:106220003A48006800F580603849086038483838D6
:10623000016E3848FFF7EAFB354938390A6E486E77
:10624000344903F0E9FA4FF4806131483838416746
:106250002E48006803F0D4FA2C480068001D2B4932
:106260000860084601682A4838388167274800686E
:10627000001D264908600846016825483838C1676E
:1062800022480068001D214908600846016820482E
:106290003838C0F880101D480068CE301B490860AF
:1062A000084601681A483838C0F884101748006852
:1062B00000F580601549086000E01CE04FF4806143
:1062C0001448FFF7A3FB124938394A6F886F114908
:1062D00003F0A2FA0D4800680F49086000210E483B
:1062E000006803F087FA09480068801C07490860C5
:1062F000022002490870304667E600005004002082
:106300004804002044040020700400204C040020B5
:10631000745D0020805E00205404002010B588B019
:1063200004462022192101A8FFF746FB192201A9E2
:10633000204603F071FA08B010BD000010B5044605
:106340004FF4806004EB8401354A42F83100014685
:106350003448006803F054FA32480068001D04EB2A
:1063600084012F4A02EBC10148602E4800680830C2
:1063700004EB840102EBC10188602A4800680C30FC
:1063800004EB840102EBC101C860264800681030AC
:1063900004EB840102EBC10108612248006814305B
:1063A00004EB840102EBC10148611E48006818300B
:1063B00004EB840102EBC10188611A4800681C30BB
:1063C00004EB840102EBC101C8611648006820306B
:1063D00004EB840102EBC10108621248006824301A
:1063E00004EB840102EBC10148620E48006800F230
:1063F00004400C4908604FF480610B48FFF706FB2E
:1064000004EB8401064B53F8312004EB840103EBC9
:10641000C1014868044903F0FFF9002010BD0000E5
:10642000E05D00204C040020805E002070B5002557
:10643000002400263348466B5FE075685AE0EC683C
:1064400055E0D4F8980000284FD0D4F8A0000028D8
:106450004BD0D4F8A00090F8340000F002000228DD
:106460000AD1D4F8A000806B30B1D4F8A01020225B
:10647000886B3621FFF7A0FAD4F8A00090F834001A
:1064800000F0040004280AD1D4F8A000C06B30B199
:10649000D4F8A0102022C86B1021FFF78DFAD4F891
:1064A000A00090F8340000F0080008280AD1D4F8C1
:1064B000A000006C30B1D4F8A0102022086C362166
:1064C000FFF77AFAD4F8A00090F8340000F010003A
:1064D00010280AD1D4F8A000406C30B1D4F8A01034
:1064E0002022486C3621FFF767FAD4F89C40002C34
:1064F000A7D12D69002DA2D1B668002E9DD1002014
:1065000070BD00003C5D00202DE9F84306460F46B3
:10651000002400254FF48358002000901248446B5B
:106520001BE02068B04215D165680EE02868694616
:1065300001F09CFEBDF80000B84205D1002000F03B
:1065400051FE2846BDE8F8832D69002DEED14FF4A9
:10655000835801E041F25008A468002CE1D1404684
:1065600000F040FE0020EDE73C5D00202DE9F04109
:1065700004460D4616461F4614B10DB106B117B9B3
:106580004020BDE8F081D4F8AC0008B94020F8E71D
:10659000D4F8AC00D0F81A0008B94020F1E7D4F8DC
:1065A000AC00D0F81A0000682860D4F8AC10086875
:1065B000314601F05BFE3946206801F057FE0020AD
:1065C000DFE72DE9F84307468846154600260024F4
:1065D00041F270090020009041463846FFF794FFD1
:1065E00006468EB1F4680CE06946206801F03EFE74
:1065F000BDF80000A84202D14FF0000903E0D4F832
:106600009C40002CF0D102E001F0EAFC8146B9F197
:10661000000F04D0002441F2700000F0E3FD20469A
:10662000BDE8F88310B504460021204600F070FD57
:106630000348806818B1024881682046884710BD29
:106640003C5D00207CB500250024002001900090D6
:1066500000BF42E000253DE005EB440101EB810174
:106660001F4A02EBC101486801A901F00DFE9DF827
:106670000400001F06282AD2DFE800F008060504FF
:10668000070300BF00BF00BF00BF00BF15488069FF
:1066900088B105EB440101EB8101114A02EBC10114
:1066A000C869694601F0E2FD0E489DF80410826950
:1066B000BDF80000904705EB440101EB8101084A59
:1066C00002EBC1014868002103F0A0F800E000BF20
:1066D00000BF6D1C022DBFD3641C022CBAD37CBD3D
:1066E000E05D00203C5D002010B5044605480068D0
:1066F00018B10448016820468847204600F03BFD59
:1067000010BD00003C5D002010B50446012120466C
:1067100000F0FEFC0348406818B10248416820467A
:10672000884710BD3C5D002070B50024002504485A
:10673000C06920B102482946C2692046904770BD11
:106740003C5D002010B50848006838B10748006873
:1067500020B10548016805480068884700210348C2
:10676000006803F04DF810BD6C0400208804002080
:1067700010B50448006B18B10248016B002088472F
:1067800010BD00003C5D002070B504460D46044875
:10679000406920B10248294642692046904770BDB1
:1067A000C45D002010B504460648406918B105488C
:1067B000416920468847E0B200F08EFD204600F097
:1067C000BFFC10BD3C5D00202DE9F041ADF5846DAE
:1067D0000020CDF81C040024CDF80C04CDF81004E2
:1067E000CDF81404CDF818044FF4806103A8FFF726
:1067F0000DF9002500260027A04600BF89E00026ED
:10680000002704EB8402464901EB820148680DF23F
:106810001C4101F039FD9DF81C04012878D10DF2CE
:106820000C41204601F0F2FBBDF814044AF6F17267
:10683000811A904215D00CDCA0F50040A0F1280090
:1068400048B3012836D0A0F53C50C838002840D1C4
:1068500006E0012906D0022905D0032939D103E039
:1068600000BF00BF00BF00BF03A80090BDF81434F4
:10687000BDF81224BDF81014DDF80C0400F081FA04
:106880000546681C30B1DDF81804A84202D2B126D2
:106890000027002529E003A9BDF81204CDE9000175
:1068A000BDF8103421460020DDF80C2400F0C8FAB1
:1068B00005461AE003A9BDF81204CDE90001BDF8B0
:1068C000103421460120DDF80C2400F0B9FA054609
:1068D0000BE013483838C06830B111483838C16807
:1068E000204688474FF0010800BF00BFB8F1000FF5
:1068F0000ED1681C10B9B02600270025E0B22A4648
:1069000003A903F0DBF83A463146204602F0B2FA1A
:10691000641C042CFFF473AF0DF5846DBDE8F081A9
:10692000745D002008B50020009069460C4800689E
:1069300000F2CB1001F09AFCBDF80000401000906E
:10694000BDF80000082801D1FFF770FD0548C068B8
:1069500020B10448C168BDF80000884708BD0000A8
:1069600070040020C45D002010B50348806810B199
:1069700001498868804710BDC45D002010B50446F9
:106980000348406818B1024841682046884710BD56
:10699000C45D002010B504460748006818B10649D8
:1069A0000868804706E00448806918B10248816998
:1069B0002046884710BD0000C45D002010B5054882
:1069C000006930B101F012FB04460248016920461B
:1069D000884710BDC45D002010B50848006838B174
:1069E0000748006820B105480168054800688847E5
:1069F00000210348006802F003FF10BD840400205A
:106A00007C04002010B50448C06A18B10248C16A6D
:106A10000020884710BD00003C5D00202DE9F041BA
:106A2000ADF5836D00240020CDF814044FF480618F
:106A300005A8FEF7EBFF002500260027A046002052
:106A4000019002900390049000BF32E004EB8402B6
:106A50001B4901EB820148680DF2144101F014FC5E
:106A60009DF81404022823D101A9204601F0CEFA92
:106A7000E0B205A9049A02F05DF900BF1048383869
:106A8000006930B10E4838380169204688474FF018
:106A9000010800BF00BFB8F1000F09D1681C10B990
:106AA000B026002700253A463146204602F096FAE5
:106AB000641C042CCAD30DF5836DBDE8F081000081
:106AC000745D00202DE9F84305460E4634463746EE
:106AD0004FF00008002000908146A41D55F8A00F3B
:106AE00000782070641C286840782070641C286836
:106AF000811C14222046FEF70FFF1434286800F191
:106B0000160110222046FEF707FF10342868C08CBB
:106B10000012296891F8261040EA012080B2009006
:106B2000BDF800002080A41C286890F8280000060A
:106B30002968098D01F47F4140EA01202968896AAA
:106B400001F47F0140EA11202968896A40EA11694D
:106B5000C4F80090241D2868808D0012296891F8DF
:106B60002C1040EA012080B20090BDF80000208087
:106B7000A41C2868C08D0012296891F82E1040EAE4
:106B8000012080B20090BDF800002080A41C28687D
:106B9000008E0012296891F8301040EA012080B27E
:106BA0000090BDF800002080A41C2868408E0012D0
:106BB000296891F8321040EA012080B20090BDF8B7
:106BC00000002080A41C2868808E001255F8A019AF
:106BD00091F8341040EA012080B20090BDF8000026
:106BE0002080A41CA4EB0608A8F10400C0F3072130
:106BF00041EA002078804FF4005038800120B880AE
:106C00004046BDE8F8832DE9F04105460E4634467E
:106C100037464FF00008D5F8A00090F8340000F097
:106C20000200022803D04FF0FF30BDE8F081A41D20
:106C3000D5F8A0002022816B2046FEF76DFE20349F
:106C4000D5F8A000806B00F1200116222046FEF747
:106C500063FE1634A4EB0608A8F10400C0F3072174
:106C600041EA002078804FF4045038800120B88039
:106C70004046DAE72DE9F04106460D462C462F4600
:106C80004FF00008D6F8A00090F8340000F004009F
:106C9000042803D04FF0FF30BDE8F081A41DD6F8E2
:106CA000A0001022C16B2046FEF736FE1034A4EB84
:106CB0000508A8F10400C0F3072141EA002078800C
:106CC0004FF4085038800120B8804046E4E72DE9B1
:106CD000F04106460D462C462F464FF00008D6F8E8
:106CE000A00090F8340000F00800082803D04FF00E
:106CF000FF30BDE8F081A41DD6F8A0003622016C5B
:106D00002046FEF709FE3634A4EB0508A8F104007E
:106D1000C0F3072141EA002078804FF40C503880FE
:106D20000120B8804046E4E72DE9F04106460D46D3
:106D30002C462F464FF00008D6F8A00090F83400FB
:106D400000F01000102803D04FF0FF30BDE8F081B4
:106D5000A41DD6F8A0003622416C2046FEF7DCFDCB
:106D60003634A4EB0508A8F10400C0F3072141EA7A
:106D7000002078804FF4105038800120B8804046C1
:106D8000E4E72DE9F04780460C4615461F46DDF83E
:106D900020904FF0000A002614B9B5F5004F09D035
:106DA0001CB948F20100854204D054B948F20200EF
:106DB000854206D1012200214046FFF702FC06462B
:106DC00005E02A4621464046FFF7FBFB06461EB972
:106DD0004FF0FF30BDE8F087D6F8A00010B94FF0B3
:106DE000FF30F7E7A7F52F40F038052822D2DFE87B
:106DF00000F003090F151B0049463046FFF762FEFD
:106E000082461AE049463046FFF7FDFE824614E00E
:106E100049463046FFF72EFF82460EE0494630468F
:106E2000FFF755FF824608E049463046FFF77CFFF2
:106E3000824602E04FF0FF3A00BF00BF5046C9E76C
:106E40002DE9F04F89B0074692469B46139D0020DE
:106E50000890804600264FF0FF3907900690059075
:106E60000490AA48806A08B94FF00108B8F1000FF1
:106E700008D159465046129AFFF7A3FB06460EB9B1
:106E80004FF00108B8F1000F1AD10020039003A9B8
:106E9000B06A01F0EBF9012F07D107A9706E01F07C
:106EA000E5F9BDF81C0000B9B84647B907A9306A32
:106EB00001F0DCF9BDF81C0008B94FF0010800BF73
:106EC000B8F1000F10D10020039003A9D6F8A80054
:106ED00001F0CCF9BDF80C0028B1BDF80C00012878
:106EE00001D04FF0010800BFB8F1000F2DD10024F0
:106EF00057B907A9306A01F0B9F9BDF81C0000F1D3
:106F00000C0905F10C040CE0012F0AD107A9706EE1
:106F100001F0ACF9BDF81C00182101EB400905F1A6
:106F20000D0406A8BDF81C10CDE900410290774879
:106F300004AB05AA3146D0F828C03846E04708908F
:106F4000089808B14FF0010800BFB8F1000F7CD1DC
:106F5000002400200390EFBB4FF4A85003902819A1
:106F6000BDF80C100180A41CA9F10400C0F3072196
:106F700041EA002080B203902819BDF80C1001806E
:106F8000A41C01222046641C2A5400222046641CB2
:106F90002A5401222046641C2A549DF814202046BD
:106FA000641C2A5401222046641C2A549DF8102097
:106FB0002046641C2A54BDF81C000012BDF81C10A9
:106FC00040EA012080B203902819BDF80C1001801E
:106FD000A41C93E0FFE7012FFBD14FF4B0500390C6
:106FE0002819BDF80C100180A41CA9F10400C0F3FD
:106FF000072141EA002080B203902819BDF80C1047
:107000000180A41C01222046641C2A540022204630
:10701000641C2A54BDF818000012BDF8181040EA8C
:10702000012080B203902819BDF80C100180A41C27
:1070300001222046641C2A542046641C2A54BDF8B0
:107040001C000012BDF81C1000E058E040EA0120CE
:1070500080B203902819BDF80C100180A41C9DF883
:1070600014202046641C2A54BDF81C0004449DF8DA
:1070700010202046641C2A544FF4A0500390281975
:10708000BDF80C100180A41CBDF81C00801DC0F3CD
:107090000721BDF81C00801D41EA002080B203904A
:1070A0002819BDF80C100180A41C01222046641C84
:1070B0002A5400222046641C2A54002003902819D8
:1070C000BDF80C100180A41C9DF814202046641CFF
:1070D0002A542819BDF81C10FEF776FCBDF81C00D8
:1070E00004449DF81000802804D080222046641CAF
:1070F0002A5403E040222046641C2A5401E04FF049
:10710000FF39484609B0BDE8F08F00003C5D002023
:1071100020B1012805D0022809D105E0054A1160F7
:1071200006E0054A116003E0044A116000E000BF78
:1071300000BF70475C04002060040020640400204D
:1071400070B50446002524B1012C06D0022C0CD1C8
:1071500007E0012000F023F80AE0022000F01FF809
:1071600006E0032000F01BF802E04FF4884500BF62
:1071700000BF284670BD10B504461CB9062000F0BB
:107180000EF80AE0012C03D1072000F008F804E013
:10719000022C02D1082000F002F8002010BD38B502
:1071A000044669461C2001F068F80120A0400099BF
:1071B000484000901C20009902F022FB002038BDBE
:1071C00038B504466946242001F057F80120A04054
:1071D0000099484000902420009902F011FB002003
:1071E00038BD0000014908607047000040040020DD
:1071F0002DE9F05F05460F4690469946DDF828A038
:107200000AF1060600244FF0FF3B2FB9B8F1000F3A
:1072100002D1B9F1010F03D04FF0FF30BDE8F09F6C
:10722000012200210846FFF7CCF9044614B1D4F836
:10723000A00010B94FF0FF30F0E7D4F8A000808E26
:10724000284010B94FF0FF30E8E7022D06D0042D9A
:1072500019D0082D21D0102D33D128E0D4F8A0105A
:107260002022886B3146FEF757FB2036D4F8A01059
:10727000896B01F1200016223146FEF74DFB1636D0
:107280004FF0360B20E0D4F8A0101022C86B314626
:10729000FEF742FB4FF0100B16E0D4F8A010362298
:1072A000086C3146FEF738FB4FF0360B0CE0D4F893
:1072B000A0103622486C3146FEF72EFB4FF0360BFD
:1072C00002E04FF0FF3B00BF00BF29462046FFF71A
:1072D0005BFA5846A2E7000038B50446002000904B
:1072E000022C10DA0949096801F2B91101EB840096
:1072F000694600F0C2FF0649009841F8240008469C
:1073000050F8240038BD0020FCE700007004002085
:107310007404002000BFFEE710B5034804F0D3F862
:107320006FEA2020C0B210BD001802401CB500203A
:107330000090019001210C4803F03AF9684604F0EE
:107340007BF84FF47F40009000208DF806008DF808
:10735000040001208DF805008DF8070069460348F8
:1073600004F074F81CBD0000060030000018024054
:1073700010B5022003F05AFAD0B1022003F046FA09
:10738000174900220868022103F0A3FA14490022D9
:107390000868082103F09DFA0021124803F021FA41
:1073A0000F48007D20B901220F49104807F0CEFE9A
:1073B000082003F03BFA90B1082003F027FA0849AF
:1073C00000220868022103F084FA054900220868B7
:1073D000082103F07EFA0021024803F002FA10BDF2
:1073E0003C0B00200864024006000C0000440040F2
:1073F00010B5202003F01AFAD8B1202003F006FAC5
:107400000C4900228869022103F063FA094900222D
:107410008869082103F05DFA0021074803F0E1F9CB
:1074200000220649064807F091FE0249C88C07F081
:10743000E3FD10BD3C0B00201C64024004000C0066
:1074400000440040704710B5012003F02BFE28B126
:10745000002002F0E3FC012003F01EFE10BD00003E
:107460002DE9F04788B020216846FEF7CFFA6C4638
:107470004FF00A0A4FF00009002600270025A84611
:1074800000BF00BF00BF00BF20216846FEF7BEFA64
:10749000204603F0B9FF00BF00BF00BF14F808008A
:1074A000082803D1002D06DD6D1E04E014F8082025
:1074B00028466D1C2254404608F10108205C002833
:1074C000ECD120782D2802D14FF00109641C2078DE
:1074D000302808D16078782802D06078582802D106
:1074E0004FF0100AA41C2046FEF7F7F9471E002FA4
:1074F00004DA4FF0FF3008B0BDE8F087E05D68289F
:1075000002D0E05D482804D14FF0100A0020E05579
:107510007F1EBAF10A0F0BD12046FEF7D1F90646BD
:10752000B9F1000F01D0704200E0304606462CE071
:10753000002521E0FDF77AFF0068615D405C00F006
:10754000980098B1FDF772FF0068615D405C00F043
:10755000100028B1605D00EB0610A0F137060AE0CC
:10756000605D00EB0610A0F1570604E0605D00EBE3
:107570000610A0F130066D1CBD42DBDDB9F1000F35
:1075800001D0704200E03046064602A0FEF724F823
:107590003046B0E70D0A000000BFFEE700BFFEE77F
:1075A0007047000010B5024809F0EBFA10BD00006A
:1075B0002013002010B500BF102080F31188BFF306
:1075C0004F8FBFF36F8F00BF0BF0F8F918B14FF07A
:1075D00080500449086000BF002080F3118800BF7C
:1075E00010BD000004ED00E01F48006840F470008A
:1075F0001D4908601D48006820F00100401C1B491F
:10760000086000BF19480068C0F340000028F9D0A6
:1076100016480830006820F003001449083108605B
:1076200000BF124808300068C0F381000028F8D17C
:107630000E4800680E4908400C49086000200B49BC
:10764000083108600B48091F086000200749A03175
:1076500008604FF41F0005490C3108604FF00060CE
:10766000014980390860704788ED00E00038024029
:10767000FFFFF2FE0230030010B50121084807F0B9
:107680002EFB60B10748006828B106480022114669
:107690000368052098470121014807F01DFB10BD34
:1076A000000C0040580200200EB50121124802F0E3
:1076B0007FFF0121114802F07BFF0221042007F027
:1076C00073F8684603F0E0FC01208DF80900002003
:1076D0008DF800000120019000208DF80800684618
:1076E00003F0EEFC032004F027FF00220421062013
:1076F00004F0BEFE0EBD00000E0044000400300089
:1077000010B504460CB1012000E0002002464FF401
:107710008041024803F08BFE10BD000000040240CF
:107720001CB500200090019001210F4802F040FF9D
:10773000684603F081FE4FF48040009001208DF8F0
:10774000060000208DF8040001208DF805008DF85A
:1077500007006946054803F079FE00224FF4804196
:10776000024803F064FE1CBD01003000000402402A
:107770002DE9F04F8BB000250027A846A946AA4660
:1077800000200A900990089003F096FB6CA0FDF78A
:1077900023FF00BF00F0AAFB0546202D07D173A0F0
:1077A000FDF71AFF4FF0FF300BB0BDE8F08F002D52
:1077B000F0D17CA0FDF710FF00F086FD05461DB15D
:1077C0007CA0FDF709FF02E088A0FDF705FF02F0AD
:1077D00077FC05461DB1294691A0FDF7FDFE06F098
:1077E00081FFFFF799FD0446214697A0FDF7F4FEBF
:1077F000B4B120216846FEF709F9224698A16846EF
:10780000FDF7F6FE69469AA0FDF7E6FE6846FEF72C
:1078100064F8064600223146684601F0F7FE00BFD4
:1078200000BF02F011F80546002DFAD100F0E6FC89
:1078300001209649086000BF80E000F045FA002072
:1078400000F086FB012876D1002002F075F80026B2
:10785000B346002455E004EB44008D4901EB800061
:10786000C088F0B104EB4401894B03EB8101CA8865
:1078700004EB440153F8210009AB864901F0B6FA44
:1078800004EB4401824B03EB8101CA88B0B2814909
:1078900006F02CF904EB44007D4901EB8000C08820
:1078A000064404EB44007A4901EB80008088F8B17B
:1078B00004EB4401764B03EB81018A881FFA8BF0BD
:1078C000744906F05BF804EB4401714B03EB810152
:1078D0008A8804EB440153F8210080236D4902F0AB
:1078E0007CF804EB44006A4901EB80008088834403
:1078F00004EB4401664A52F82100802101F0F4FEB5
:10790000641C1F2CA7DB80216348006801F0ECFE9B
:1079100080216148006801F009FE002001F0ECFFC1
:107920005E48007838B100205C4908705CA0FDF723
:1079300053FE06F0A3F8012009F022FD7DE70000C8
:1079400057616974696E6720666F7220696E697429
:1079500069616C697A6174696F6E206F6620746802
:1079600065205450532E2E2E0A0000004552524FCF
:10797000523A205450532044726976657220616EE9
:107980006420545053204669726D7761726520619E
:107990007265206E6F7420636F6D70617469626CC4
:1079A00065210A0054505320737461727465640D2C
:1079B0000A00000044454255475F415049203E209F
:1079C0004150493A205450535F496E697441707078
:1079D0006C69636174696F6E496E74657266616328
:1079E00065206661696C6564210A21004445425541
:1079F000475F415049203E204150493A205450535E
:107A00005F496E69744170706C69636174696F6E0F
:107A1000496E74657266616365204F4B210A0000F0
:107A20004552524F523A20636F6E666967446576DD
:107A300069636528292072657475726E65643A20E1
:107A40003078253038580A006765742064697020E2
:107A500073657474696E67203D307825780A00007C
:107A60006772632D6830706E2D6465762D25640015
:107A70005450535F5365744E616D654F6653746126
:107A800074696F6E3D25730D0A000000EC01002043
:107A9000B0090020B00400202402002020000020B3
:107AA0002A2A2A2A737461727420696F20657863A8
:107AB00068616E67650D0A0010B50446012C05D19A
:107AC00000224103044803F0B2FC04E00122510308
:107AD000014803F0ACFC10BD000402401CB50020BE
:107AE0000090019001210F4802F062FD684603F00A
:107AF000A3FC4FF40050009001208DF806008DF893
:107B0000040000208DF8050001208DF8070069466B
:107B1000054803F09BFC01225103034803F087FC56
:107B20001CBD000001003000000402401CB5002014
:107B3000009001900121164802F03AFD684603F0DA
:107B40007BFC0820009001208DF8060000208DF8B5
:107B5000040001208DF805008DF8070069460D48E6
:107B600003F074FC012208210A4803F060FC102095
:107B7000009000208DF806008DF8040001208DF89B
:107B800005008DF807006946024803F05FFC1CBD44
:107B9000040030000010024038B505460020009077
:107BA00000243B480078022800D025B138480078EE
:107BB000052805D025B13020FFF714FB002038BD83
:107BC00034480068801D34490968401A33490968FF
:107BD000884205D94FF40070FFF704FB0020EEE760
:107BE00069462F48006800F041FBBDF80000401CCA
:107BF00080B20090BDF800102948006801F0FAFD3D
:107C000029462448006801F0FBFD22480068001D59
:107C10002049086008460068224908600021214880
:107C2000006801F0E7FD1B480068801C19490860E6
:107C30001D48406B80B90C2003F0E4FD1A494863ED
:107C40000846406B28B94FF40070FFF7CBFA0020CC
:107C5000B5E71548446B0BE01348446B00E0A4689B
:107C6000A0680028FBD10C2003F0CCFDA060A46824
:107C70002CB94FF40070FFF7B5FA00209FE725609C
:107C800000206060A060032001490870204696E74C
:107C9000500400204C04002044040020480400202C
:107CA00054040020580400203C5D0020F8B5044630
:107CB0000D4616461F4600203B4632462946009098
:107CC0002046FEF76FF9F8BD08B500200090694620
:107CD000402000F0D2FA009800F0010028B1002006
:107CE000FEF712FD0020FFF76BFA009800F002008B
:107CF00028B10120FEF708FD0120FFF761FA009886
:107D000000F0040028B10220FEF7FEFC0220FFF77D
:107D100057FA009800F0080028B10020FEF742FD55
:107D20000320FFF74DFA009800F0100028B1012061
:107D3000FEF738FD0420FFF743FA009800F020001A
:107D400028B10220FEF72EFD0520FFF739FA009832
:107D500000F0400028B10020FEF764FC0620FFF789
:107D60002FFA009800F0800028B10120FEF75AFC9D
:107D70000720FFF725FA009800F4807028B1022050
:107D8000FEF750FC0820FFF71BFA009800F4007083
:107D900020B10920FFF714FAFEF716FD009800F451
:107DA000806020B10A20FFF70BFAFEF737FE00983B
:107DB00000F4006020B1FEF745FC0B20FFF700FA4D
:107DC000009800F4805020B1FEF7AEFC0C20FFF7C5
:107DD000F7F9009800F4005028B10020FEF784FC69
:107DE0000D20FFF7EDF9009800F4804028B1012044
:107DF000FEF77AFC0E20FFF7E3F9009800F400404C
:107E000028B10220FEF770FC0F20FFF7D9F9009887
:107E100000F4803028B10120FEF7BCFD1020FFF7F0
:107E2000CFF9009800F4003028B10020FEF7A6FD3D
:107E30001120FFF7C5F9009800F4802028B1012037
:107E4000FEF79CFD1220FFF7BBF9009800F400201C
:107E500020B1FEF789FD1320FFF7B2F9009800F476
:107E6000801008B1FEF75EFD009800F4001020B10C
:107E7000FEF7E8FB1520FFF7A3F9009800F40000D7
:107E800020B11720FFF79CF9FEF75CFC009800F08A
:107E9000807020B11820FFF793F9FEF79DFD009840
:107EA00000F4800020B1FEF7ADFD1620FFF788F941
:107EB000009800F0006020B11B20FFF781F9FEF769
:107EC0007DFD009800F0805028B10020FEF762FD93
:107ED0001C20FFF775F9009800F0005020B1FEF764
:107EE00047FC1D20FFF76CF9002008BD38B50024C1
:107EF000002000904FF40040134908606946124882
:107F0000006800F0BAF904460CB1204638BD00986C
:107F10006FF30F00B0F1806F07D1009880B209288D
:107F200001D10020F2E72020F0E70098B0F1EE3F09
:107F300003D006490098884203D101F0B9FC102013
:107F4000E4E71020E2E70000700400205A55555580
:107F50000146002021B1012905D0022909D105E0FF
:107F6000064A106808E0064A106805E0054A1068ED
:107F700002E04FF6FF7000BF00BF70475C040020B6
:107F80006004002064040020024602F1C042108810
:107F9000086000207047000070B504460E46154684
:107FA0003CB1042221460D48006800F5F87000F04D
:107FB00072F93EB1042231460848006800F5FA70B3
:107FC00000F069F93DB1042229460448006800F533
:107FD000FC7000F060F9002070BD0000700400200B
:107FE00001480068704700004004002008B50020E8
:107FF000009069460448006800F2C91000F036F9A4
:10800000BDF8000008BD00007004002030B589B044
:1080100004460D46002008900790069005900490B5
:10802000039002900190042C03D340F6651009B030
:1080300030BD04EB84024C4901EB8201C96801F1B7
:10804000940007A900F012F904EB8402464901EB01
:108050008201C96801F1A60006A900F00EF904EB3F
:108060008402414901EB8201C96801F1AA0005A916
:1080700000F0FCF804EB84023B4901EB8201C96883
:1080800001F1AC0004A900F0F1F804EB84023649D8
:1080900001EB8201C96801F1AE0003A900F0E6F826
:1080A00004EB8402304901EB8201C96801F1B000A0
:1080B00002A900F0DBF804EB84022B4901EB8201FA
:1080C000C96801F1B20001A900F0D7F804EB8402FD
:1080D000254901EB8201486808A900F0D5F89DF810
:1080E0002000012806D09DF82000022802D040F68A
:1080F00064109CE706980006069901F47F4140EA67
:108100000120069901F47F0140EA1120069940EA16
:1081100011602860BDF814000012BDF8141040EA88
:108120000120A880BDF810000012BDF8101040EA30
:108130000120E880BDF808000012BDF8081040EAF0
:108140000120288101980006019901F47F4140EA4D
:108150000120019901F47F0140EA1120019940EAD0
:108160001160E860002062E7745D002070B504468D
:108170000D4609480078082802D043F2105070BD1F
:1081800004B115B94FF45450F9E76068294600F07E
:1081900074F80020F3E700005004002070B5044696
:1081A0000D460CB9402070BD152D01D25020FAE7C4
:1081B000142221460448006800F2291000F06BF8F0
:1081C0000020207500BFEEE77004002070B5044663
:1081D0000D460CB9402070BD112D01D25020FAE798
:1081E000102221460448006800F2191000F053F8EC
:1081F0000020207400BFEEE7700400202DE9F0415C
:108200000024012547F6F0762F03A0463B46324670
:108210002946204600F06EFE80464046BDE8F081CB
:108220002DE9F04104460F4615461E460E480078DB
:10823000082803D043F21050BDE8F08114B10FB10B
:1082400005B116B94FF45450F6E73946606800F0AE
:1082500014F82946206A00F009F83146606E00F0F3
:1082600005F80020E8E7000050040020024602F173
:10827000C0421088088000207047024602F1C042C8
:108280001068086000207047024602F1C042107872
:1082900008700020704770B506460C46154614B9A4
:1082A0004FF4485070BD1DB140F2F250854202D9E2
:1082B00043F27000F6E706F1C0462A4631462046F2
:1082C000FDF72AFB0020EDE70F48007808B13020C9
:1082D00070474FF400400D490860084600680C499B
:1082E00008604FF400400B49086000200A494863C9
:1082F0000120054908700020084908600849086005
:108300000849086000BFE3E750040020440400204F
:108310004C040020480400203C5D00205C04002048
:10832000600400206404002010B5052406242F48B2
:108330000078A04201D0302010BD2D48006800F622
:10834000EC302C490968401A2B490968884202D947
:108350004FF4A060F0E72648007800F003012448BD
:108360000068001D401A2549086040F2F251234878
:108370000068001D01F044FA03212048006808301D
:1083800001F03EFA04221EA11C4800680C3001F0E6
:1083900043FA1748006800F2FE5015490860084685
:1083A000007800F0030112480068001D401A1649C9
:1083B000086040F2F25114480068001D01F020FAF4
:1083C000032111480068083001F01AFA04220FA1B5
:1083D0000D4800680C3001F01FFA0548006800F2F3
:1083E000FE50034908600020A6E70000500400206A
:1083F0004C0400204404002048040020880400208D
:10840000BABADEDA000000008C040020DEDABABA64
:108410000000000010B530480078052801D0302059
:1084200010BD2E48006800F6EC302D490968401A4E
:108430002C490968884202D94FF4A060F0E7274828
:10844000007800F0030125480068001D401A264905
:10845000086040F2F25124480068001D01F0D0F994
:10846000032121480068083001F0CAF904221FA145
:108470001D4800680C3001F0CFF91848006800F280
:10848000FA50164908600846007800F003011348C6
:108490000068001D401A1749086040F2F251154863
:1084A0000068001D01F0ACF9032112480068083093
:1084B00001F0A6F9042210A10E4800680C3001F06A
:1084C000ABF90648006800F2FA500449086006203B
:1084D000014908700020A3E7500400204C0400204C
:1084E00044040020480400207C040020C00CBEEDA1
:1084F0000000000080040020EDBE0CC00000000061
:10850000F0B505460F461346002613B94FF4485000
:10851000F0BD00240BE03946284601F077F9064605
:1085200016B143F25010F3E76D1C601C84B29C42FC
:10853000F1DB3046ECE700002DE9F84305460F4635
:1085400016460024A046002000904F4800780328DB
:108550000DD04D480078052809D04B4800780428F4
:1085600005D03020FEF73EFE0020BDE8F88325B997
:108570004020FEF737FE0020F7E739462868FDF770
:10858000C3FF04462CB14FF45070FEF72BFE0020C1
:10859000EBE74FF008083D48006840443C49096853
:1085A000401A3C490968884205D94FF44470FEF7E7
:1085B00019FE0020D9E7686828B91E2003F022F9C7
:1085C00068606C680AE06C6800E024692069002833
:1085D000FBD11E2003F016F9206124692CB94FF459
:1085E0004C70FEF7FFFD0020BFE7C4F81A500020D2
:1085F0002061E060208339462448006801F0FAF8E1
:1086000022480068206021480068801C1F490860DB
:1086100031461E48006801F0F3F81C4800686060AD
:108620001A480068001D1949086069461A48006820
:10863000FFF71CFEBDF80000401C80B20090BDF8A2
:1086400000101548006801F0D5F800210F480068B7
:1086500001F0D0F80D480068A0600C480068801C4C
:108660000A49086002210948006801F0C3F8074878
:108670000068606105480068801C044908600420A7
:1086800001490870204670E7500400204C04002087
:108690004404002048040020580400202DE9F04F35
:1086A00089B005460E4693469846DDF84890159FDA
:1086B0004FF0000A002008900024079006900590D3
:1086C0000490039002900190FE48007804280AD09C
:1086D000FC480078052806D03020FEF783FD0020F6
:1086E00009B0BDE8F08F25B94020FEF77BFD0020E2
:1086F000F6E7F548406BD0B1F348D0F834A013E06A
:10870000DAF8040008900AE00898A84204D1DAF8E0
:1087100000000690012001900898006908900898D0
:108720000028F1D1DAF808A0BAF1000FE8D10198D9
:1087300028B94FF48C60FEF755FD0020D0E728687B
:1087400005A9FFF793FDBDF8140040B9012E06D12D
:108750002FB940F26240FEF745FD0020C0E7BDF8AA
:10876000140050B9012E08D13FB1169828B940F233
:108770006340FEF737FD0020B2E72FB940F26440B6
:10878000FEF730FD0020ABE73246BDF81410069826
:10879000FDF717FF04462CB14FF48860FEF722FD69
:1087A00000209DE709EB091040446E300790C74850
:1087B000016807980844C6490968401AC54909680C
:1087C000884205D94FF48060FEF70CFD002087E752
:1087D0002DB94FF48260FEF705FD002080E7BA480E
:1087E000406B28B94FF48460FEF7FCFC002077E76B
:1087F000E86828B9B02003F005F8E860EC680EE0FE
:10880000EC6801E0D4F89C40D4F89C000028F9D131
:10881000B02002F0F7FFC4F89C00D4F89C402CB9BB
:108820004FF48660FEF7DEFC002059E7C4F8AC5038
:108830000020C4F89C00A868039004A90398FFF7DF
:1088400015FDBDF81000401C80B20490BDF810105A
:10885000039800F0CFFF31469C48006800F0CAFF43
:108860009A480068206099480068801C9749086011
:1088700059469648006800F0C3FF9448006860605D
:1088800092480068001D91490860BBF1000F03D1B8
:108890000120A4F8940002E00020A4F894005FB145
:1088A0001698012808D101218848006800F0A2FF2D
:1088B00086480068C4F8980084480068801C834992
:1088C000086041468148006800F09AFF7F480068D0
:1088D000A0607E480068001D7C490860084600686A
:1088E000E0600021E06800F08BFF78480068001D20
:1088F00076490860084600682061084600684044E0
:10890000086008460068097801F00301C1F104011C
:1089100008446E49086009EB09116C48006800F0D2
:108920006FFF6A480068606168480068001D674919
:10893000086049466548006800F062FF63480068C7
:10894000A06162480068001D604908600846006830
:10895000E06102A96069FFF790FC5F480299FDF7AA
:1089600055F8E0695C49029A00F056FF57480068E4
:1089700009EB091108445549086008460068097860
:1089800001F00301C1F104010844504908600846A0
:108990000068A06208460068801C08604B48139974
:1089A000006800F027FF49480068206247480068D7
:1089B000801C4649086008460068606208460068F6
:1089C000001D086008460068E06200213F4800681A
:1089D00000F010FF3D480068801C3C4908600846D4
:1089E0000068206300213948006800F003FF374821
:1089F0000068801C354908600846006860630021F3
:108A00003248006800F002FF30480068401C2F49DF
:108A1000086008460068097801F00301C1F104010B
:108A200008442A49086008460068A06300212748D6
:108A3000006800F0DFFE25480068801C23490860BC
:108A400008460068E06300212048006800F0DEFE70
:108A50001E480068401C1D490860084600680978E7
:108A600001F00301C1F104010844184908600846F7
:108A70000068206400211548006800F0BBFE134820
:108A80000068801C11490860084600686064002185
:108A90000E48006800F0AEFE0C480068801C0B49D0
:108AA000086008460068A06400210848006800F0DB
:108AB000A1FE06480068801C04490860084600685A
:108AC000E0640BE0500400203C5D00204C040020DA
:108AD0004404002048040020805E002000219348C8
:108AE000006800F087FE91480068801C8F4908608C
:108AF00008460068206500218C48006800F086FE6A
:108B00008A480068401C894908600846006809785E
:108B100001F00301C1F104010844844908600846DA
:108B20000068606500218148006800F063FE7F48AE
:108B30000068801C7D49086008460068A065002127
:108B40007A48006800F062FE78480068401C774967
:108B5000086008460068097801F00301C1F10401CA
:108B600008447249086008460068E06500216F48C3
:108B7000006800F03FFE6D480068801C6B4908608B
:108B800008460068206600216848006800F032FE50
:108B900066480068801C654908606448149900684C
:108BA00000F028FE61480068606660480068801C2C
:108BB0005E49086008460068A06608460068001D17
:108BC000086008460068E06600215848006800F028
:108BD00011FE56480068801C544908600846006829
:108BE000206700215148006800F004FE4F480068EB
:108BF000801C4E4908600846006844F8740F002144
:108C00004A48006800F002FE48480068401C474996
:108C1000086008460068097801F00301C1F1040109
:108C200008444249086008460068606000213F48E7
:108C3000006800F0DFFD3D480068801C3B4908608B
:108C400008460068A06000213848006800F0DEFD9A
:108C500036480068401C35490860084600680978B5
:108C600001F00301C1F104010844304908600846DD
:108C70000068E06000212D48006800F0BBFD2B4833
:108C80000068801C294908600846006820610021AE
:108C90002648006800F0AEFD24480068801C234987
:108CA000086008460068E061743C00211F480068C5
:108CB00000F0A0FD1D480068801C1C490860286861
:108CC00005A9FFF7D3FABDF81400D0B9012E18D1C9
:108CD00016480068C4F8A4001A220021134800684E
:108CE000FFF70EFC114800681A301049086008466A
:108CF0000068097801F00301C1F1040108440B493F
:108D000008600A480068C4F8A80000210748006805
:108D100000F070FD05480068801C04490860C4F834
:108D2000A0700520024908702046D9E44C040020B8
:108D3000500400202DE9FC4104460E46154600274C
:108D4000002001900090042C03DB40F64110BDE8A8
:108D5000FC8104EB8402244901EB8201C96801F122
:108D6000B2006946FFF789FA04EB84021E4901EB61
:108D70008201486801A9FFF787FA9DF804000228DC
:108D800002D040F64210E2E700980006009901F494
:108D90007F4140EA0120009901F47F0140EA11205F
:108DA000009940EA1160A84202D94FF41460CEE75E
:108DB00000990906009B03F47F4341EA0321009BCD
:108DC00003F47F0341EA1321009B41EA136204EBA1
:108DD0008403054901EB830108693146FFF75BFA1B
:108DE00007463846B3E70000745D0020FEB5044630
:108DF0000E4615461F46002002900190009004B1D7
:108E00002EB94FF40450FEF7EDF90020FEBD2DB948
:108E100042F23010FEF7E6F90020F7E76946606E8F
:108E2000FFF724FABDF80000A84205D042F2101066
:108E3000FEF7D8F90020E9E702A9A06EFFF7A4F831
:108E400001A9E06EFFF712FABDF804100298084479
:108E50000290BDF8002031460298FFF71CFABDF8D9
:108E60000020029988183946FFF70EFABDF8000075
:108E7000CCE70000F8B504460D46164600200090E9
:108E800016B140F63610F8BD042C02D340F6371068
:108E9000F9E704EB8402164901EB82014868694650
:108EA000FFF7F2F99DF8000001280FD19DF80000AE
:108EB00040F00800009004EB84020D4901EB8201B0
:108EC00048689DF8001000F0A1FC02E040F6351063
:108ED000D9E745B104EB8402054901EB82018868BA
:108EE000294600F087FC0420FEF759F90020CAE764
:108EF000745D00202DE9FC5F8046894692461D4640
:108F00000026002700240020019000908346542072
:108F1000FCF794FA0646B41D3746002E57D054216C
:108F20003046FCF751FD4FF4106038804FF470501C
:108F300078800120B88000020090BDF800002080F9
:108F4000A41C00BFC4F800B0241D4FEA282040EA4A
:108F5000082080B20090BDF800002080A41C4FEAD9
:108F6000292040EA092080B20090BDF8000020804E
:108F7000A41C00200090BDF800002080A41C4FEA33
:108F80002A2040EA0A2080B20090BDF8000020802C
:108F9000A41C280605F47F4140EA012005F47F0166
:108FA00040EA112040EA156BC4F800B0241DA4F17A
:108FB0000E011022A01CFCF7AFFC04224021304619
:108FC00000F0F5F901903046FCF767FA02E04FF443
:108FD000824001900198BDE8FC9F0000F8B504466E
:108FE0000D4616460020009016B140F63210F8BD2E
:108FF00004EB84021B4901EB820148686946FFF7D4
:1090000043F99DF8000002280FD19DF8000040F0C0
:109010000800009004EB8402124901EB82014868C9
:109020009DF8001000F0F2FB02E040F63110DEE7A0
:1090300045B104EB84020B4901EB820188682946A3
:1090400000F0D8FB04EB8402064901EB8201C968F9
:1090500001F1B200002100F0D3FB0420FEF79FF8DD
:109060000020C4E7745D00202DE9FF4F85B08146E4
:109070008A469346129D0026002700240020049073
:109080000390029001901FFA85F808F15400FCF754
:10909000D5F90646B41D374604F13A000490002E77
:1090A00061D008F154013046FCF78EFC4FF40060AB
:1090B00038804FF4705078800120B8800002029010
:1090C000BDF808002080A41C0020019001982060B9
:1090D000241D4FEA292040EA092080B20290BDF801
:1090E00008002080A41C4FEA2A2040EA0A2080B20F
:1090F0000290BDF808002080A41C00200290BDF85A
:1091000008002080A41C4FEA2B2040EA0B2080B2EC
:109110000290BDF808002080A41C280605F47F41B9
:1091200040EA012005F47F0140EA112040EA156081
:10913000019001982060241DA4F10E011022A01CB2
:10914000FCF7EAFB424608990498FCF7E5FB08F1B6
:10915000400081B20422304600F029F903903046E5
:10916000FCF79BF902E04FF482400390039809B0AA
:10917000BDE8F08F024611B94FF4E6607047092A46
:1091800002D00B2A0DD109E00948806910B90848BE
:10919000016002E04FF4E260F0E705E0044881601E
:1091A00002E04FF4E260E9E700BF0020E6E70000DC
:1091B000C45D0020024611B94FF4E6607047092AE9
:1091C00007D00A2A02D00C2A10D10CE00A484160CC
:1091D0000FE00948006810B90748816102E04FF4C8
:1091E000E260EBE705E00448C16002E04FF4E260B2
:1091F000E4E700BF0020E1E7C45D0020014611B9AB
:109200004FF4E6607047024801600020FAE7000072
:109210006C040020014611B94FF4E6607047024823
:1092200041610020FAE70000C45D00202DE9FE4FF7
:1092300005460C4616461F46DDE90C9A4FF000081D
:1092400000200290019000906B4601AA02A92846D6
:10925000FDF78CF98046B8F1000F01D04FF48C482F
:10926000B8F1000F3ED1C4B30020A086C5F8A040DD
:109270003EB1A08E40F00200A086D5F8A000866323
:1092800003E00020D5F8A01088633FB1A08E40F025
:109290000400A086D5F8A000C76303E00020D5F83D
:1092A000A010C863B9F1000F08D0A08E40F00800EC
:1092B000A086D5F8A000C0F8409003E00020D5F8C3
:1092C000A0100864BAF1000F08D0A08E40F0100082
:1092D000A086D5F8A000C0F844A003E00020D5F88F
:1092E000A01048644046BDE8FE8F0000014611B959
:1092F0004FF4E6607047024801610020FAE7000081
:10930000C45D0020014611B94FF4E6607047024881
:1093100081620020FAE700003C5D0020024611B99E
:109320004FF4E6607047122A28D2DFE802F00C0FF3
:109330001215181E1B27092727272727272721242F
:10934000114801601DE0104841601AE00E4881603C
:1093500017E00D48C16014E00B48016111E00A48B4
:1093600041610EE0084841620BE00748016208E0F5
:109370000548C16205E00448016302E04FF4E06083
:10938000D0E700BF0020CDE73C5D0020014611B9C9
:109390004FF4E6607047024801600020FAE70000E1
:1093A0008404002010B51420FDF70AFF10BD2DE93C
:1093B000F04106460C46174640F2F2533A46214623
:1093C000304600F009F80546A54202D10020BDE86C
:1093D000F0812846FBE700002DE9FC4707460C46D4
:1093E00015469846002001900090814600261CB149
:1093F00040F2F250844203DD4FF4C060BDE8FC87C8
:1094000055B1012D08D0022D06D0032D04D0042D16
:1094100002D04FF4C460F1E701A91C20FEF72DFF34
:10942000042D04D14FF016093B48066803E04FF0C5
:1094300012093A4806683A480068B84202D000204B
:10944000384908703748007820BB69463046FEF737
:1094500014FF012000FA09F001990840012101FAE6
:1094600009F1884202D00EB1009810B14FF4C260E9
:10947000C4E701202B4908702948076000202A49C9
:1094800008802146301D00F0BBF9294606F108008E
:1094900000F0B6F9A04508DB2246394606F10C007B
:1094A00000F0BAF92048048027E01F480088201AFD
:1094B000404512DA1C4B1B88E21A1B4B1B88F9181B
:1094C00006F10C03DFF860C0BCF800C003EB0C0031
:1094D00000F0A2F9144804800FE0134A1288B9186A
:1094E00006F10C02104B1B88D018424600F094F98C
:1094F0000D48008840440C4908800B480088A04271
:1095000007D14846FDF74BFE002006490870044984
:1095100008600548008871E7800400208C04002062
:10952000A8040020A4040020AC04002013B584B0DB
:10953000044600200390029001901CB94FF48A4029
:1095400006B010BD01A9A06AFEF790FEBDF80400A8
:1095500000F0010010B94FF40550F1E79DF8140038
:10956000802803D105A9E06BFEF78EFE03A9606A8F
:10957000FEF70AFD02A9A06BFEF778FEBDF80820F1
:10958000039988189DF8141000F040F90020D7E7DF
:109590002DE9F04104460D46164600271A4800788A
:1095A000082803D043F21050BDE8F08114B94FF4FD
:1095B0005450F9E735B1012D09D0022D10D0032DFB
:1095C0001CD116E06069022100F014F919E060690D
:1095D000012100F00FF96068314600F011F910E048
:1095E0006069032100F006F96068314600F008F96F
:1095F00007E06069002100F0FDF802E043F2205727
:1096000000BF00BF3846CFE75004002070B5BEB0A1
:1096100005460E46144600203D901F48006810B9CC
:1096200030203EB070BDF02E02D94FF48040F8E7F4
:10963000012C03D014B144F21000F2E70DB9402020
:10964000EFE73DA91448006800F2D910FEF71CFEB0
:109650009DF8F40000F0FE0004F0010108433D9085
:10966000F02101A8FCF7D2F9F02201A90A4800680C
:109670000C3000F0D1F832462946074800680C301B
:1096800000F0CAF89DF8F4100348006800F2D91001
:1096900000F0BCF80020C4E77004002030B585B0AD
:1096A00004460D4614216846FCF7B0F914B9402071
:1096B00005B030BD142D01D98020F9E720221421F6
:1096C0006846FCF779F92A4621466846FCF724F9F2
:1096D000142269460348006800F2291000F09CF843
:1096E000E6E700007004002013B584B004460020B3
:1096F0000390029001901CB94FF48A4006B010BD4F
:1097000001A9A06AFEF7B2FDBDF8040000F0020056
:1097100010B94FF40550F1E79DF81400802803D1EB
:1097200005A9E06BFEF7B0FD03A9606AFEF72CFC0B
:1097300002A9206BFEF79AFDBDF80820039988184E
:109740009DF8141000F062F80020D7E72DE9F041F1
:1097500004460D461646002725480078082803D001
:1097600043F21050BDE8F08114B94FF45450F9E7BA
:10977000012D03D116B943F22050F3E735B1012D85
:109780000ED0022D1AD0032D2CD121E00021D4F8C7
:10979000A80000F02FF88021E06B00F02BF824E007
:1097A0003146606800F02CF80221D4F8A80000F0DF
:1097B00021F80021E06B00F01DF816E00121D4F83B
:1097C000A80000F017F88021E06B00F013F80CE01F
:1097D0000321D4F8A80000F00DF80021E06B00F0A0
:1097E00009F802E043F2205700BF00BF3846B9E74E
:1097F00050040020024602F1C04211800020704750
:10980000024602F1C042116000207047024602F198
:10981000C04211700020704770B505460E461446D0
:109820000CB9002070BD40F2F250844202D943F2DC
:109830003000F7E705F1C045224631462846FCF7DF
:109840006BF80020EEE7000038B5002000900524FA
:10985000062415480078A04205D013480078072850
:1098600001D0302038BD10480078A0420BD1002133
:109870000E480068001DFFF7C3FF0020FDF78FFCB6
:10988000072009490870694608480068001DFEF76E
:10989000F4FC0098B0F5004F01D01020E2E708205A
:1098A000014908700020DDE750040020700400200A
:1098B000F8B54FF4004400250020009000266946CA
:1098C0002046FEF7DAFC0098B0F1EE3F05D00949DA
:1098D0000098884201D0052609E006492046FFF796
:1098E0008FFF45F004052946201DFFF789FF30460C
:1098F000F8BD00005A55555538B5044600250020DE
:10990000009024B1012C02D04FF4884038BD600093
:10991000401C40F0A00529460020FFF771FF00BF62
:1099200069460420FEF7A9FC0098284085F0200134
:109930008842F5D10020E9E738B50446002500202B
:10994000009024B1012C02D04FF4884038BD600053
:10995000801C40F0600529460020FFF751FF00BF42
:1099600069460420FEF789FC0098284085F0200114
:109970008842F5D10020E9E72DE9F84F04460D466D
:1099800016461F46DDF828804FF00009C246A4F5B0
:109990002F40F13830B1012807D0022808D0032821
:1099A0000CD108E04FF002090CE04FF0040909E087
:1099B0004FF0080906E04FF0100903E040F661108F
:1099C000BDE8F88F00BF09F0FF003B46324629464C
:1099D000CDF800A0FDF70CFCF2E77FB586B0044699
:1099E0000E461546002005900490039002900190C9
:1099F00014B146B9002D06DD4FF40450FDF7F2FB1B
:109A000000200AB070BD01A9A06AFEF72FFCBDF8C6
:109A1000040000F0010028B94FF40550FDF7E2FB07
:109A20000020EEE79DF82400802803D109A9E06B0F
:109A3000FEF72AFC02A9206AFEF718FCBDF8080010
:109A4000A84205D042F21010FDF7CCFB0020D8E769
:109A500005A9606AFEF798FA04A9E06AFEF706FC19
:109A600003A9A06BFEF702FCBDF80C00BDF81010B6
:109A7000401AA84211D1BDF8102005998818BDF8E8
:109A800008203146FFF7C8FEBDF80C20059988185C
:109A90009DF82410FFF7BAFE0CE0BDF80C200599E4
:109AA00088180021FFF7B2FE42F21110FDF79AFB71
:109AB00000200290BDF80800A3E700007CB5044632
:109AC0000E461546002001900090042C02DB40F663
:109AD00051107CBD04EB84022A4901EB8201C96864
:109AE00001F1B2006946FEF7C8FB04EB8402254988
:109AF00001EB8201486801A9FEF7C6FB9DF804004E
:109B0000012802D040F65210E3E7009800060099C1
:109B100001F47F4140EA0120009901F47F0140EA0D
:109B20001120009940EA1160A84206D304EB840199
:109B3000144850F82100A84202D24FF41560C8E73B
:109B400004EB84020F4901EB82012A460869314681
:109B5000FFF762FE2A0605F47F4342EA032205F47A
:109B60007F0342EA132242EA156104EB8403054AAB
:109B700002EB8302D26802F1B200FFF741FE00203F
:109B8000A7E70000745D00202DE9F84F05460E465A
:109B9000144600274FF0010842F2120944EA054A30
:109BA000BB46281940F6FE71884203DD44F21120BD
:109BB000BDE8F88F14B1B4F5A76F02D944F21220B2
:109BC000F6E733464A4641463846CDF800A0FFF74F
:109BD0004BFA83465846EBE710B502E00A2007F03F
:109BE000CFFB2021054805F052FA0028F6D00348A3
:109BF00005F028FAC4B2204610BD00000010014054
:109C000010B5044602E00A2007F0BAFB802105489F
:109C100005F03DFA0028F6D02146024805F016FA74
:109C200010BD00000010014010B54021244805F08F
:109C30002EFA58B14021224805F020FA002221498D
:109C40001F4805F083FA05F0EBF938E010211C48B5
:109C500005F01DFA50B31021194805F00FFA002243
:109C60001849891E164805F071FA1749886900F0ED
:109C7000BDFD04461448C08CA04216DD12490022E6
:109C80008869022100F025FE0F4900228869082119
:109C900000F01FFE0C498869002100F0A2FD0A496E
:109CA000C98C091B88B205F0A7F908E00221044815
:109CB00005F0EDF918B10221014805F0DFF910BDFA
:109CC0000044004006000C003C0B002000BFFEE7F3
:109CD00030380A2801D2012070470020704700BFA9
:109CE000704700BF7047000030B90A4A126822F07E
:109CF0000202084B1A6006E0064A126822F00202CD
:109D0000921C044B1A60034A126861F30002014B73
:109D10001A60704704740140024909680143014A0E
:109D200011607047047401400149086070470000E9
:109D30000C74014001490860704700001074014034
:109D400001490860704700001474014010B50548CF
:109D500090F83805072803D101F0DAFB02F000FC87
:109D600010BD00000057002010B500F0D3FC00200B
:109D700000F004F8002000F029F810BD1CB50446DE
:109D80000F4951F82400012100F012FC684601F04F
:109D900053FB01208DF8070000208DF804000120FE
:109DA0008DF80600074830F81400009000208DF868
:109DB0000500054951F82400694601F047FB1CBD28
:109DC000A0020020980200208C020020022800DD62
:109DD0007047064931F8101031B1044931F81010BC
:109DE000034A52F82020916100BFF1E79802002059
:109DF0008C020020022800DD7047064931F810105F
:109E000031B1044931F81010034A52F82020916210
:109E100000BFF1E7980200208C020020022800DD3C
:109E20007047094931F8101059B1084951F820100C
:109E30004969054A32F810205140044A52F820205E
:109E4000516100BFECE70000980200208C02002066
:109E500038B5002426E001200090601CC1B2002328
:109E60001A46282004F0FAFC90B91149D1F8D4021E
:109E7000017828290BD18278611C8A4207D10122FE
:109E800001EB81030A49091D01EB83018A7208E095
:109E90000021601C00EB80020548001D00EB8200E1
:109EA0008172641C02480078A042D4DC002038BDD6
:109EB000400E002070B5044600252646812130461C
:109EC00006F00BFA0121304606F007FA284670BD6D
:109ED0002DE9F0410446002725466868466A0021BE
:109EE000284606F06FFC8046D6F8F404092802D113
:109EF0000020C6F8F4043846BDE8F0810146002091
:109F0000704702460020012904D0022903D003290A
:109F100003D101E002E001E000E000BF00BF7047B4
:109F200070B504460E460025204606F07BFC284608
:109F300070BD2DE9F0410446002625466868476A51
:109F4000402303228121284606F0E7F9402303221B
:109F50000121284606F0E1F9402307F59562012129
:109F6000284606F007FA3046BDE8F0812DE9F047B3
:109F700004460F464FF0000825466868466A394691
:109F8000284606F01FFC81461FFA89F206F5956106
:109F9000204606F05BFC402306F595620121284629
:109FA00006F0E8F94046BDE8F08700002DE9F047EB
:109FB00006460C464FF00009B046D8F80400456A42
:109FC000207800F0600098B3202869D16078801E66
:109FD0000A2827D2DFE800F0150926262626261CA7
:109FE0001005A078C5F8E80420E0012205F59D6180
:109FF000404606F025F819E060880012C5F8EC0428
:10A0000014E0012205F2EC41404606F019F80DE09B
:10A010000920C5F8F404E28805F59F61404605F083
:10A02000F1FF03E0404606F02BF800BF00BF3BE025
:10A03000FFE76078062804D00A2823D00B282CD10B
:10A0400027E060882221B1EB202F08D1E08820286A
:10A0500001DD202000E0E0888246154F0CE060889A
:10A060002121B1EB202F07D1E088092801DD09204B
:10A0700000E0E08882460F4F52463946404605F0E0
:10A08000DFFF0BE0012205F59E61404605F0D8FF99
:10A0900004E06088C5F8F00400E000BF00BF03E002
:10A0A000404605F0EDFF00BF00BF4846BDE8F08721
:10A0B000CC030020EC030020014600207047000084
:10A0C0002DE9F04786B048F209374FF001084FF00C
:10A0D00000094FF0000A00250026002005905620B8
:10A0E0008DF8140012208DF8150000208DF8160050
:10A0F00005208DF8170005AB43A201213846FDF776
:10A10000D5FD05463DB90020FDF746FD064616B9CA
:10A11000FDF766FF0546DDB901F0C8FA3D48006865
:10A1200048B114213B480068801CFFF7B7FA10B112
:10A1300039A0FBF751FA012200213046FEF7FCF965
:10A140003D4908600846006810B9FDF749FF05461B
:10A1500045BB01202F49096800220192CDE9022167
:10A160001346009204900246014633480068FEF709
:10A1700095FA324908600846006818B9FDF730FFC3
:10A1800005460FE02E4800682E490968CDE9001009
:10A190002D4803682D4802681E480168274800685A
:10A1A000FFF744F8002428E0601C81B2002230460A
:10A1B000FEF7C2F9264941F8240018B9FDF710FF4F
:10A1C00005461CE00020134909680190CDE9020111
:10A1D00004901F49009051F8240000231A460121E1
:10A1E000FEF75CFA04EB44011A4A42F8210018B960
:10A1F000FDF7F6FE054602E0641C1F2CD4DB00BF11
:10A20000284606B0BDE8F0874752432D4830504EEF
:10A2100000000000D80100204552524F523A20540D
:10A2200050535F5365744F726465724964282920E6
:10A230006661696C65640A00FC010020240200204C
:10A24000E8010020E4010020E0010020DC01002002
:10A25000B0080020B00900200349096860F3071125
:10A26000014A11607047000008380240034909683C
:10A2700060F38C21014A11607047000008380240E9
:10A280000349096860F34F31014A116070470000CB
:10A2900008380240012807D10749096821F0300138
:10A2A0003031054A116005E00349096821F03001A9
:10A2B000014A116070470000A438024005282BD2E3
:10A2C000DFE800F0030A11182100154A126861F353
:10A2D0000002134B1A6020E0114A126861F3104229
:10A2E0000F4B1A6019E00E4A126861F318620C4BAA
:10A2F0001A6012E00A4A7032126861F30002084BD9
:10A3000070331A6009E0064A7432126861F3000281
:10A31000034B74331A6000E000BF00BF70470000B9
:10A32000003802402DE9FE4F04464FF00009CA46AE
:10A33000CB460020029001900025002600F0C8F9CD
:10A340000090009820B1012812D002283FD112E0DD
:10A3500031480068C0F3803038B12F480068C0F33E
:10A36000003010B12D48206001E02D48206031E020
:10A370002B4820602EE028489C380068C0F38050AD
:10A38000029025489C380068C0F3881922489C3800
:10A39000006800F00F0A20489C380068C0F30240B3
:10A3A000204911F800B0029810B91D48019001E051
:10A3B0001B4801900AFB0BFC0198A0FB09700146A9
:10A3C000624600233846FBF78FF8206002E014480D
:10A3D000206000BF00BF104898380068C0F3031524
:10A3E0001148465D2068F04060600B48983800686E
:10A3F000C0F382250D48465D6068F040E060064885
:10A4000098380068C0F342350948465D6068F040FE
:10A41000A060BDE8FE8F0000A0380240006CDC02A6
:10A4200000127A007A3201085A3201086A320108B1
:10A4300072320108384A811A904218D009DCA0F51E
:10A440004021082965D2DFE801F0222D38434E640F
:10A450006459891E06295CD2DFE801F00304050671
:10A46000070800BF00BF00BF00BF00BF00BF2B49EF
:10A47000096821F0807101F18071284A116000BFE4
:10A4800026490968C1F300610029F9D142E0234956
:10A490006839096821F4803101F580311F4A683A32
:10A4A000116037E01D496839096821F4003101F570
:10A4B00000311A4A683A11602CE018496839096875
:10A4C00021F4802101F58021144A683A116021E0CD
:10A4D00012496839096821F4002101F500210F4A69
:10A4E000683A116016E00D496839096821F4801155
:10A4F00001F58011094A683A11600BE00749683993
:10A50000096821F4000101F50001044A683A11606C
:10A5100000E000BF00BF70471800740074380240AC
:10A5200010B501460020094B03EB1142D2F8002878
:10A5300001F01F040123A3401A4001F01F0401236E
:10A54000A3409A4200D000E0012010BD003002403C
:10A5500030B50024002500E0641C1120FFF7E0FF67
:10A56000012802D0B4F5405FF6D31120FFF7D8FFE1
:10A57000012801D0002500E00125284630BD00005B
:10A580000349096860F30C31014A1160704700000B
:10A59000A038024000B503460120FFF7F1FF034851
:10A5A000006863F38E300149086000BDA0380240A6
:10A5B00010B501290FD1104B03EB1042D2F800283F
:10A5C00000F01F040123A3401A430B4C04EB10437B
:10A5D000C3F800280EE0084B03EB1042D2F8002825
:10A5E00000F01F040123A3409A43034C04EB1043E3
:10A5F000C3F8002810BD00000030024030B538B963
:10A600000F4C246824F4805404F580540C4D2C60C5
:10A610000B4C9C3C246860F39654094D9C3D2C6087
:10A620002C46246861F38E142C602C46246862F357
:10A6300003042C602C46246863F312442C6030BD64
:10A64000A03802401A48006820F00100401C184958
:10A65000086000BF16480068C0F340000028F9D029
:10A6600013480830006820F00300114908310860E1
:10A6700000BF0F4808300068C0F381000028F8D1FF
:10A680000B4800680B490840094908600020084948
:10A69000083108600848091F086000200449A031FB
:10A6A00008604FF41F0002490C3108607047000039
:10A6B00000380240FFFFF2FE023003000349096840
:10A6C00060F30101014A1160704700000838024040
:10A6D00002480068C0F3810070470000083802405B
:10A6E0000349096860F30F31014A116070470000A7
:10A6F000A438024010B50446012C01D1FFF74AFFEF
:10A700000348006864F34D300149086010BD000043
:10A71000A038024010B5042004F0B8FA07480068D9
:10A720000749B0FBF1F007490860084600684FF49C
:10A730007A7148430449086010BD0000BC02002043
:10A7400040420F00AC020020B0020020002131E0A6
:10A7500032280ADD194A126832235A434FF0E023A7
:10A760005A61A0F1320290B206E0144A12684243E4
:10A770004FF0E0235A61002000224FF0E0239A615D
:10A780001A46126942F001021A6100BF4FF0E0223E
:10A79000116901F001021AB101F48032002AF5D0EA
:10A7A0004FF0E022126922F001024FF0E0231A611B
:10A7B00000229A610028CBD170470000B00200202F
:10A7C00030B50446002509E04FF4FA70FFF7BEFFEC
:10A7D0004FF4FA70FFF7BAFF681C85B2A542F3DBAD
:10A7E00030BD026861F300020260704701464868AC
:10A7F00080B2704700210160416001814181017395
:10A8000041738173C173017441747047B0F1805F0B
:10A8100004D920F07041034A116001E00249086048
:10A8200070470000046602400464024001460022B2
:10A83000B1F1805F02D90648026801E0054802686C
:10A8400002EA010008B1012070470020FCE7000087
:10A850000066024000640240D0F8003123F001039A
:10A860005B1CC0F800310B6862F306030B60704795
:10A8700002684BF6EF731A40026002680B891A43B4
:10A8800002604B7C026863F30D320260CB7B02688E
:10A8900063F38B2202608B7B026863F30922026000
:10A8A0004B7B026863F3C71202600B7B026863F3A1
:10A8B000861202600B7C026863F3451202604B89CA
:10A8C000426863F30F0242600A6882604A68C260AD
:10A8D00070471AB103680B43036002E003688B43BF
:10A8E000036070470021026822F00102026000222A
:10A8F000026042608260C260014640F2FF620A402C
:10A90000B2F5C16F0DD2CAB2083A1423B2FBF3F20A
:10A9100093000F229A400D4B1B681A430B4B1A6091
:10A9200012E040F2FF620A40B2F5D16F0CD2CAB217
:10A93000083A1423B2FBF3F293000F229A40044B1F
:10A940001B681A43024B1A607047000004640240FF
:10A950000466024010B504462CB1012211030648DA
:10A9600000F065FD05E000224FF48051024800F040
:10A970005EFD002010BD0000000402401CB504462E
:10A9800001218748FFF714FE01214FF44010FFF723
:10A990000FFE01218348FFF70BFE01218248FFF7DC
:10A9A00007FE684600F048FD01208DF807000020F2
:10A9B0008DF8040001208DF806004FF6FF7000901E
:10A9C00000208DF805006946784800F03FFD684694
:10A9D00000F032FD01208DF8070000208DF8040002
:10A9E00002208DF806000C20009000208DF8050054
:10A9F00069466F4800F02AFD0220009000208DF883
:10AA0000050069466A4800F021FD01208DF8060026
:10AA10000003009002208DF805006946634800F0AD
:10AA200015FD07220121624800F051FD0722022195
:10AA30005F4800F04CFD072203215D4800F047FD10
:10AA4000002301225B495C4804F02AFB0A221146DC
:10AA5000594804F09BFB0021574804F0FBFA012100
:10AA6000554804F09CFB01225449534804F06EFB06
:10AA70000121514804F085FB01214F4804F094FB6B
:10AA800001214D4804F0F0FA01214B4804F0E7FAA7
:10AA90000121494804F0EDFA012142481530FFF741
:10AAA00087FD4748474908600868FFF71BFF45488E
:10AAB000001DFFF79FFE1021424881810021C174D3
:10AAC000012141743C48001D3E49486000213D4839
:10AAD00081740174012141750021017501460868E6
